{
  "contractName": "BuyerContract",
  "abi": [
    {
      "anonymous": false,
      "inputs": [
        {
          "indexed": true,
          "internalType": "address",
          "name": "buyerAddress",
          "type": "address"
        },
        {
          "indexed": false,
          "internalType": "string",
          "name": "firstName",
          "type": "string"
        },
        {
          "indexed": false,
          "internalType": "string",
          "name": "lastName",
          "type": "string"
        }
      ],
      "name": "BuyerRegistered",
      "type": "event"
    },
    {
      "inputs": [
        {
          "internalType": "address",
          "name": "",
          "type": "address"
        }
      ],
      "name": "buyers",
      "outputs": [
        {
          "internalType": "string",
          "name": "firstName",
          "type": "string"
        },
        {
          "internalType": "string",
          "name": "lastName",
          "type": "string"
        },
        {
          "internalType": "string",
          "name": "email",
          "type": "string"
        },
        {
          "internalType": "string",
          "name": "phone",
          "type": "string"
        },
        {
          "internalType": "string",
          "name": "fieldDomain",
          "type": "string"
        }
      ],
      "stateMutability": "view",
      "type": "function",
      "constant": true
    },
    {
      "inputs": [
        {
          "internalType": "string",
          "name": "_firstName",
          "type": "string"
        },
        {
          "internalType": "string",
          "name": "_lastName",
          "type": "string"
        },
        {
          "internalType": "string",
          "name": "_email",
          "type": "string"
        },
        {
          "internalType": "string",
          "name": "_phone",
          "type": "string"
        },
        {
          "internalType": "string",
          "name": "_fieldDomain",
          "type": "string"
        }
      ],
      "name": "registerBuyer",
      "outputs": [],
      "stateMutability": "nonpayable",
      "type": "function"
    },
    {
      "inputs": [
        {
          "internalType": "address",
          "name": "_buyerAddress",
          "type": "address"
        }
      ],
      "name": "getBuyer",
      "outputs": [
        {
          "internalType": "string",
          "name": "firstName",
          "type": "string"
        },
        {
          "internalType": "string",
          "name": "lastName",
          "type": "string"
        },
        {
          "internalType": "string",
          "name": "email",
          "type": "string"
        },
        {
          "internalType": "string",
          "name": "phone",
          "type": "string"
        },
        {
          "internalType": "string",
          "name": "fieldDomain",
          "type": "string"
        }
      ],
      "stateMutability": "view",
      "type": "function",
      "constant": true
    },
    {
      "inputs": [
        {
          "internalType": "string",
          "name": "_email",
          "type": "string"
        }
      ],
      "name": "isEmailRegistered",
      "outputs": [
        {
          "internalType": "bool",
          "name": "",
          "type": "bool"
        }
      ],
      "stateMutability": "view",
      "type": "function",
      "constant": true
    }
  ],
  "bytecode": "0x608060405234801561001057600080fd5b506112c1806100206000396000f3fe608060405234801561001057600080fd5b506004361061004c5760003560e01c80635721e4191461005157806397a993aa14610085578063ccb12f04146100b9578063df3cdad7146100d5575b600080fd5b61006b60048036038101906100669190610bda565b610105565b60405161007c959493929190610f95565b60405180910390f35b61009f600480360381019061009a9190610bda565b610461565b6040516100b0959493929190610f95565b60405180910390f35b6100d360048036038101906100ce9190610c44565b61073f565b005b6100ef60048036038101906100ea9190610c03565b610a85565b6040516100fc9190610f43565b60405180910390f35b606080606080606060008060008873ffffffffffffffffffffffffffffffffffffffff1673ffffffffffffffffffffffffffffffffffffffff1681526020019081526020016000206040518060a0016040529081600082018054610168906111d3565b80601f0160208091040260200160405190810160405280929190818152602001828054610194906111d3565b80156101e15780601f106101b6576101008083540402835291602001916101e1565b820191906000526020600020905b8154815290600101906020018083116101c457829003601f168201915b505050505081526020016001820180546101fa906111d3565b80601f0160208091040260200160405190810160405280929190818152602001828054610226906111d3565b80156102735780601f1061024857610100808354040283529160200191610273565b820191906000526020600020905b81548152906001019060200180831161025657829003601f168201915b5050505050815260200160028201805461028c906111d3565b80601f01602080910402602001604051908101604052809291908181526020018280546102b8906111d3565b80156103055780601f106102da57610100808354040283529160200191610305565b820191906000526020600020905b8154815290600101906020018083116102e857829003601f168201915b5050505050815260200160038201805461031e906111d3565b80601f016020809104026020016040519081016040528092919081815260200182805461034a906111d3565b80156103975780601f1061036c57610100808354040283529160200191610397565b820191906000526020600020905b81548152906001019060200180831161037a57829003601f168201915b505050505081526020016004820180546103b0906111d3565b80601f01602080910402602001604051908101604052809291908181526020018280546103dc906111d3565b80156104295780601f106103fe57610100808354040283529160200191610429565b820191906000526020600020905b81548152906001019060200180831161040c57829003601f168201915b505050505081525050905080600001518160200151826040015183606001518460800151955095509550955095505091939590929450565b6000602052806000526040600020600091509050806000018054610484906111d3565b80601f01602080910402602001604051908101604052809291908181526020018280546104b0906111d3565b80156104fd5780601f106104d2576101008083540402835291602001916104fd565b820191906000526020600020905b8154815290600101906020018083116104e057829003601f168201915b505050505090806001018054610512906111d3565b80601f016020809104026020016040519081016040528092919081815260200182805461053e906111d3565b801561058b5780601f106105605761010080835404028352916020019161058b565b820191906000526020600020905b81548152906001019060200180831161056e57829003601f168201915b5050505050908060020180546105a0906111d3565b80601f01602080910402602001604051908101604052809291908181526020018280546105cc906111d3565b80156106195780601f106105ee57610100808354040283529160200191610619565b820191906000526020600020905b8154815290600101906020018083116105fc57829003601f168201915b50505050509080600301805461062e906111d3565b80601f016020809104026020016040519081016040528092919081815260200182805461065a906111d3565b80156106a75780601f1061067c576101008083540402835291602001916106a7565b820191906000526020600020905b81548152906001019060200180831161068a57829003601f168201915b5050505050908060040180546106bc906111d3565b80601f01602080910402602001604051908101604052809291908181526020018280546106e8906111d3565b80156107355780601f1061070a57610100808354040283529160200191610735565b820191906000526020600020905b81548152906001019060200180831161071857829003601f168201915b5050505050905085565b6000855111610783576040517f08c379a000000000000000000000000000000000000000000000000000000000815260040161077a9061102b565b60405180910390fd5b60008451116107c7576040517f08c379a00000000000000000000000000000000000000000000000000000000081526004016107be9061106b565b60405180910390fd5b600083511161080b576040517f08c379a00000000000000000000000000000000000000000000000000000000081526004016108029061108b565b60405180910390fd5b600082511161084f576040517f08c379a00000000000000000000000000000000000000000000000000000000081526004016108469061104b565b60405180910390fd5b6000815111610893576040517f08c379a000000000000000000000000000000000000000000000000000000000815260040161088a9061100b565b60405180910390fd5b6001836040516108a39190610f2c565b908152602001604051809103902060009054906101000a900460ff16156108ff576040517f08c379a00000000000000000000000000000000000000000000000000000000081526004016108f6906110ab565b60405180910390fd5b6040518060a00160405280868152602001858152602001848152602001838152602001828152506000803373ffffffffffffffffffffffffffffffffffffffff1673ffffffffffffffffffffffffffffffffffffffff1681526020019081526020016000206000820151816000019080519060200190610980929190610aba565b50602082015181600101908051906020019061099d929190610aba565b5060408201518160020190805190602001906109ba929190610aba565b5060608201518160030190805190602001906109d7929190610aba565b5060808201518160040190805190602001906109f4929190610aba565b5090505060018084604051610a099190610f2c565b908152602001604051809103902060006101000a81548160ff0219169083151502179055503373ffffffffffffffffffffffffffffffffffffffff167fb9d2c50509c79e0e0988981586e81f5a7fa8d101a7a58281cec9bcc418c2a6418686604051610a76929190610f5e565b60405180910390a25050505050565b6000600182604051610a979190610f2c565b908152602001604051809103902060009054906101000a900460ff169050919050565b828054610ac6906111d3565b90600052602060002090601f016020900481019282610ae85760008555610b2f565b82601f10610b0157805160ff1916838001178555610b2f565b82800160010185558215610b2f579182015b82811115610b2e578251825591602001919060010190610b13565b5b509050610b3c9190610b40565b5090565b5b80821115610b59576000816000905550600101610b41565b5090565b6000610b70610b6b846110fc565b6110cb565b905082815260208101848484011115610b8857600080fd5b610b93848285611191565b509392505050565b600081359050610baa81611274565b92915050565b600082601f830112610bc157600080fd5b8135610bd1848260208601610b5d565b91505092915050565b600060208284031215610bec57600080fd5b6000610bfa84828501610b9b565b91505092915050565b600060208284031215610c1557600080fd5b600082013567ffffffffffffffff811115610c2f57600080fd5b610c3b84828501610bb0565b91505092915050565b600080600080600060a08688031215610c5c57600080fd5b600086013567ffffffffffffffff811115610c7657600080fd5b610c8288828901610bb0565b955050602086013567ffffffffffffffff811115610c9f57600080fd5b610cab88828901610bb0565b945050604086013567ffffffffffffffff811115610cc857600080fd5b610cd488828901610bb0565b935050606086013567ffffffffffffffff811115610cf157600080fd5b610cfd88828901610bb0565b925050608086013567ffffffffffffffff811115610d1a57600080fd5b610d2688828901610bb0565b9150509295509295909350565b610d3c81611165565b82525050565b6000610d4d8261112c565b610d578185611137565b9350610d678185602086016111a0565b610d7081611263565b840191505092915050565b6000610d868261112c565b610d908185611148565b9350610da08185602086016111a0565b80840191505092915050565b6000610db9601883611137565b91507f4669656c6420646f6d61696e20697320726571756972656400000000000000006000830152602082019050919050565b6000610df9601683611137565b91507f4669727374206e616d65206973207265717569726564000000000000000000006000830152602082019050919050565b6000610e39601883611137565b91507f50686f6e65206e756d62657220697320726571756972656400000000000000006000830152602082019050919050565b6000610e79601583611137565b91507f4c617374206e616d6520697320726571756972656400000000000000000000006000830152602082019050919050565b6000610eb9601183611137565b91507f456d61696c2069732072657175697265640000000000000000000000000000006000830152602082019050919050565b6000610ef9601b83611137565b91507f456d61696c20697320616c7265616479207265676973746572656400000000006000830152602082019050919050565b6000610f388284610d7b565b915081905092915050565b6000602082019050610f586000830184610d33565b92915050565b60006040820190508181036000830152610f788185610d42565b90508181036020830152610f8c8184610d42565b90509392505050565b600060a0820190508181036000830152610faf8188610d42565b90508181036020830152610fc38187610d42565b90508181036040830152610fd78186610d42565b90508181036060830152610feb8185610d42565b90508181036080830152610fff8184610d42565b90509695505050505050565b6000602082019050818103600083015261102481610dac565b9050919050565b6000602082019050818103600083015261104481610dec565b9050919050565b6000602082019050818103600083015261106481610e2c565b9050919050565b6000602082019050818103600083015261108481610e6c565b9050919050565b600060208201905081810360008301526110a481610eac565b9050919050565b600060208201905081810360008301526110c481610eec565b9050919050565b6000604051905081810181811067ffffffffffffffff821117156110f2576110f1611234565b5b8060405250919050565b600067ffffffffffffffff82111561111757611116611234565b5b601f19601f8301169050602081019050919050565b600081519050919050565b600082825260208201905092915050565b600081905092915050565b600061115e82611171565b9050919050565b60008115159050919050565b600073ffffffffffffffffffffffffffffffffffffffff82169050919050565b82818337600083830152505050565b60005b838110156111be5780820151818401526020810190506111a3565b838111156111cd576000848401525b50505050565b600060028204905060018216806111eb57607f821691505b602082108114156111ff576111fe611205565b5b50919050565b7f4e487b7100000000000000000000000000000000000000000000000000000000600052602260045260246000fd5b7f4e487b7100000000000000000000000000000000000000000000000000000000600052604160045260246000fd5b6000601f19601f8301169050919050565b61127d81611153565b811461128857600080fd5b5056fea2646970667358221220c9a207b65e60eb85e84a76bd6d82aea37931e7632994c154eeae1b7a0a8fa98564736f6c63430008000033",
  "immutableReferences": {},
  "source": "// SPDX-License-Identifier: MIT\r\npragma solidity ^0.8.0;\r\n\r\ncontract BuyerContract {\r\n\r\n    struct Buyer {\r\n        string firstName;\r\n        string lastName;\r\n        string email;\r\n        string phone;\r\n        string fieldDomain;\r\n    }\r\n\r\n    // Mapping to store buyers by their wallet address\r\n    mapping(address => Buyer) public buyers;\r\n    \r\n    // Mapping to store whether an email is registered or not\r\n    mapping(string => bool) private registeredEmails;\r\n\r\n    // Event to be emitted when a new buyer is registered\r\n    event BuyerRegistered(address indexed buyerAddress, string firstName, string lastName);\r\n\r\n    // Function to register a new buyer\r\n    function registerBuyer(\r\n        string memory _firstName,\r\n        string memory _lastName,\r\n        string memory _email,\r\n        string memory _phone,\r\n        string memory _fieldDomain\r\n    ) public {\r\n        // Ensure the provided first name, last name, and email are not empty\r\n        require(bytes(_firstName).length > 0, \"First name is required\");\r\n        require(bytes(_lastName).length > 0, \"Last name is required\");\r\n        require(bytes(_email).length > 0, \"Email is required\");\r\n        require(bytes(_phone).length > 0, \"Phone number is required\");\r\n        require(bytes(_fieldDomain).length > 0, \"Field domain is required\");\r\n\r\n        // Check if the email is already registered\r\n        require(!registeredEmails[_email], \"Email is already registered\");\r\n\r\n        // Store the buyer's information in the mapping\r\n        buyers[msg.sender] = Buyer(_firstName, _lastName, _email, _phone, _fieldDomain);\r\n\r\n        // Mark the email as registered\r\n        registeredEmails[_email] = true;\r\n\r\n        // Emit event to log the buyer registration\r\n        emit BuyerRegistered(msg.sender, _firstName, _lastName);\r\n    }\r\n\r\n    // Function to retrieve buyer details by address\r\n    function getBuyer(address _buyerAddress) public view returns (\r\n        string memory firstName,\r\n        string memory lastName,\r\n        string memory email,\r\n        string memory phone,\r\n        string memory fieldDomain\r\n    ) {\r\n        Buyer memory buyer = buyers[_buyerAddress];\r\n        return (buyer.firstName, buyer.lastName, buyer.email, buyer.phone, buyer.fieldDomain);\r\n    }\r\n\r\n    // Function to check if an email is already registered\r\n    function isEmailRegistered(string memory _email) public view returns (bool) {\r\n        return registeredEmails[_email];\r\n    }\r\n}\r\n",
  "sourcePath": "C:\\Users\\insha\\OneDrive\\Desktop\\FYP\\blockchain\\contracts\\BuyerContract.sol",
  "compiler": {
    "name": "solc",
    "version": "0.8.0+commit.c7dfd78e.Emscripten.clang"
  },
  "schemaVersion": "3.4.16",
  "updatedAt": "2025-01-20T05:23:31.462Z",
  "networkType": "ethereum",
  "devdoc": {
    "kind": "dev",
    "methods": {},
    "version": 1
  },
  "userdoc": {
    "kind": "user",
    "methods": {},
    "version": 1
  }
}